{
  "contractName": "RPSContractFactory",
  "abi": [
    {
      "anonymous": false,
      "inputs": [
        {
          "indexed": true,
          "internalType": "address",
          "name": "_contract",
          "type": "address"
        }
      ],
      "name": "ContractCreated",
      "type": "event"
    },
    {
      "inputs": [
        {
          "internalType": "uint256",
          "name": "arbiterFeePercentage",
          "type": "uint256"
        }
      ],
      "name": "createContract",
      "outputs": [],
      "stateMutability": "nonpayable",
      "type": "function"
    },
    {
      "inputs": [],
      "name": "getContracts",
      "outputs": [
        {
          "internalType": "address[]",
          "name": "",
          "type": "address[]"
        }
      ],
      "stateMutability": "view",
      "type": "function",
      "constant": true
    }
  ],
  "bytecode": "0x608060405234801561000f575f80fd5b506112728061001d5f395ff3fe608060405234801561000f575f80fd5b5060043610610034575f3560e01c80639db8d7d514610038578063c3a2a93a14610054575b5f80fd5b610052600480360381019061004d919061021a565b610072565b005b61005c61014c565b604051610069919061032c565b60405180910390f35b5f81604051610080906101d6565b61008a919061035b565b604051809103905ff0801580156100a3573d5f803e3d5ffd5b5090505f81908060018154018082558091505060019003905f5260205f20015f9091909190916101000a81548173ffffffffffffffffffffffffffffffffffffffff021916908373ffffffffffffffffffffffffffffffffffffffff1602179055508073ffffffffffffffffffffffffffffffffffffffff167fcf78cf0d6f3d8371e1075c69c492ab4ec5d8cf23a1a239b6a51a1d00be7ca31260405160405180910390a25050565b60605f8054806020026020016040519081016040528092919081815260200182805480156101cc57602002820191905f5260205f20905b815f9054906101000a900473ffffffffffffffffffffffffffffffffffffffff1673ffffffffffffffffffffffffffffffffffffffff1681526020019060010190808311610183575b5050505050905090565b610ec88061037583390190565b5f80fd5b5f819050919050565b6101f9816101e7565b8114610203575f80fd5b50565b5f81359050610214816101f0565b92915050565b5f6020828403121561022f5761022e6101e3565b5b5f61023c84828501610206565b91505092915050565b5f81519050919050565b5f82825260208201905092915050565b5f819050602082019050919050565b5f73ffffffffffffffffffffffffffffffffffffffff82169050919050565b5f6102978261026e565b9050919050565b6102a78161028d565b82525050565b5f6102b8838361029e565b60208301905092915050565b5f602082019050919050565b5f6102da82610245565b6102e4818561024f565b93506102ef8361025f565b805f5b8381101561031f57815161030688826102ad565b9750610311836102c4565b9250506001810190506102f2565b5085935050505092915050565b5f6020820190508181035f83015261034481846102d0565b905092915050565b610355816101e7565b82525050565b5f60208201905061036e5f83018461034c565b9291505056fe608060405234801561000f575f80fd5b50604051610ec8380380610ec8833981810160405281019061003191906100c9565b730badd78e46e443b213b0c6b3a35ad1686c2b697c60025f6101000a81548173ffffffffffffffffffffffffffffffffffffffff021916908373ffffffffffffffffffffffffffffffffffffffff16021790555080600681905550506100f4565b5f80fd5b5f819050919050565b6100a881610096565b81146100b2575f80fd5b50565b5f815190506100c38161009f565b92915050565b5f602082840312156100de576100dd610092565b5b5f6100eb848285016100b5565b91505092915050565b610dc7806101015f395ff3fe608060405260043610610028575f3560e01c8063da8e303b1461002c578063e1631c1b14610054575b5f80fd5b348015610037575f80fd5b50610052600480360381019061004d9190610912565b61005e565b005b61005c610518565b005b60025f9054906101000a900473ffffffffffffffffffffffffffffffffffffffff1673ffffffffffffffffffffffffffffffffffffffff163373ffffffffffffffffffffffffffffffffffffffff16146100ed576040517f08c379a00000000000000000000000000000000000000000000000000000000081526004016100e4906109bd565b60405180910390fd5b60055f9054906101000a900460ff1680156101145750600560019054906101000a900460ff165b610153576040517f08c379a000000000000000000000000000000000000000000000000000000000815260040161014a90610a4b565b60405180910390fd5b5f61016b60045460035461086090919063ffffffff16565b90505f6101976127106101896006548561087590919063ffffffff16565b61088a90919063ffffffff16565b90505f6101ad828461089f90919063ffffffff16565b905060025f9054906101000a900473ffffffffffffffffffffffffffffffffffffffff1673ffffffffffffffffffffffffffffffffffffffff168473ffffffffffffffffffffffffffffffffffffffff160361041a5760025f9054906101000a900473ffffffffffffffffffffffffffffffffffffffff1673ffffffffffffffffffffffffffffffffffffffff166108fc8390811502906040515f60405180830381858888f19350505050158015610267573d5f803e3d5ffd5b505f61027d60028461088a90919063ffffffff16565b90505f8054906101000a900473ffffffffffffffffffffffffffffffffffffffff1673ffffffffffffffffffffffffffffffffffffffff166108fc6102cd8360035461089f90919063ffffffff16565b90811502906040515f60405180830381858888f193505050501580156102f5573d5f803e3d5ffd5b5060015f9054906101000a900473ffffffffffffffffffffffffffffffffffffffff1673ffffffffffffffffffffffffffffffffffffffff166108fc6103468360045461089f90919063ffffffff16565b90811502906040515f60405180830381858888f1935050505015801561036e573d5f803e3d5ffd5b5060015f9054906101000a900473ffffffffffffffffffffffffffffffffffffffff1673ffffffffffffffffffffffffffffffffffffffff165f8054906101000a900473ffffffffffffffffffffffffffffffffffffffff1673ffffffffffffffffffffffffffffffffffffffff167f2899dbc9fe19019184ec4a79aec9aab083d48c07007a18ad4f67ded7c194e4318660405161040c9190610a81565b60405180910390a350610512565b60025f9054906101000a900473ffffffffffffffffffffffffffffffffffffffff1673ffffffffffffffffffffffffffffffffffffffff166108fc8390811502906040515f60405180830381858888f1935050505015801561047e573d5f803e3d5ffd5b508373ffffffffffffffffffffffffffffffffffffffff166108fc8290811502906040515f60405180830381858888f193505050501580156104c2573d5f803e3d5ffd5b508373ffffffffffffffffffffffffffffffffffffffff167f42b05b57614f1e1fd01bc9c8045fb20c1e4c0016d13950a593e1e203d3934132826040516105099190610a81565b60405180910390a25b50505050565b5f73ffffffffffffffffffffffffffffffffffffffff165f8054906101000a900473ffffffffffffffffffffffffffffffffffffffff1673ffffffffffffffffffffffffffffffffffffffff1614806105bd57505f73ffffffffffffffffffffffffffffffffffffffff1660015f9054906101000a900473ffffffffffffffffffffffffffffffffffffffff1673ffffffffffffffffffffffffffffffffffffffff16145b6105fc576040517f08c379a00000000000000000000000000000000000000000000000000000000081526004016105f390610ae4565b60405180910390fd5b5f341161063e576040517f08c379a000000000000000000000000000000000000000000000000000000000815260040161063590610b72565b60405180910390fd5b5f73ffffffffffffffffffffffffffffffffffffffff165f8054906101000a900473ffffffffffffffffffffffffffffffffffffffff1673ffffffffffffffffffffffffffffffffffffffff160361077857335f806101000a81548173ffffffffffffffffffffffffffffffffffffffff021916908373ffffffffffffffffffffffffffffffffffffffff16021790555034600381905550600160055f6101000a81548160ff0219169083151502179055507fcf34ef537ac33ee1ac626ca1587a0a7e8e51561e5514f8cb36afa1c5102b3bab60405161071d90610bda565b60405180910390a13373ffffffffffffffffffffffffffffffffffffffff167fe16d00ef5966e9f8b7d7cc07929bebed9cd2dfed36a48d2299e1c95a1d3f451c3460405161076b9190610a81565b60405180910390a261085e565b3360015f6101000a81548173ffffffffffffffffffffffffffffffffffffffff021916908373ffffffffffffffffffffffffffffffffffffffff1602179055506001600560016101000a81548160ff021916908315150217905550346004819055507fcf34ef537ac33ee1ac626ca1587a0a7e8e51561e5514f8cb36afa1c5102b3bab60405161080790610c42565b60405180910390a13373ffffffffffffffffffffffffffffffffffffffff167fe16d00ef5966e9f8b7d7cc07929bebed9cd2dfed36a48d2299e1c95a1d3f451c346040516108559190610a81565b60405180910390a25b565b5f818361086d9190610c8d565b905092915050565b5f81836108829190610cc0565b905092915050565b5f81836108979190610d2e565b905092915050565b5f81836108ac9190610d5e565b905092915050565b5f80fd5b5f73ffffffffffffffffffffffffffffffffffffffff82169050919050565b5f6108e1826108b8565b9050919050565b6108f1816108d7565b81146108fb575f80fd5b50565b5f8135905061090c816108e8565b92915050565b5f60208284031215610927576109266108b4565b5b5f610934848285016108fe565b91505092915050565b5f82825260208201905092915050565b7f4f6e6c792074686520617262697465722063616e2064656369646520746865205f8201527f77696e6e65720000000000000000000000000000000000000000000000000000602082015250565b5f6109a760268361093d565b91506109b28261094d565b604082019050919050565b5f6020820190508181035f8301526109d48161099b565b9050919050565b7f416c6c2070617274696573206d757374206861766520706169642074686569725f8201527f207374616b657300000000000000000000000000000000000000000000000000602082015250565b5f610a3560278361093d565b9150610a40826109db565b604082019050919050565b5f6020820190508181035f830152610a6281610a29565b9050919050565b5f819050919050565b610a7b81610a69565b82525050565b5f602082019050610a945f830184610a72565b92915050565b7f47616d652069732066756c6c00000000000000000000000000000000000000005f82015250565b5f610ace600c8361093d565b9150610ad982610a9a565b602082019050919050565b5f6020820190508181035f830152610afb81610ac2565b9050919050565b7f4d757374207374616b65206120706f73697469766520616d6f756e74206f66205f8201527f6574686572000000000000000000000000000000000000000000000000000000602082015250565b5f610b5c60258361093d565b9150610b6782610b02565b604082019050919050565b5f6020820190508181035f830152610b8981610b50565b9050919050565b7f50617274792031206a6f696e656420616e642070616964207374616b650000005f82015250565b5f610bc4601d8361093d565b9150610bcf82610b90565b602082019050919050565b5f6020820190508181035f830152610bf181610bb8565b9050919050565b7f50617274792032206a6f696e656420616e642070616964207374616b650000005f82015250565b5f610c2c601d8361093d565b9150610c3782610bf8565b602082019050919050565b5f6020820190508181035f830152610c5981610c20565b9050919050565b7f4e487b71000000000000000000000000000000000000000000000000000000005f52601160045260245ffd5b5f610c9782610a69565b9150610ca283610a69565b9250828201905080821115610cba57610cb9610c60565b5b92915050565b5f610cca82610a69565b9150610cd583610a69565b9250828202610ce381610a69565b91508282048414831517610cfa57610cf9610c60565b5b5092915050565b7f4e487b71000000000000000000000000000000000000000000000000000000005f52601260045260245ffd5b5f610d3882610a69565b9150610d4383610a69565b925082610d5357610d52610d01565b5b828204905092915050565b5f610d6882610a69565b9150610d7383610a69565b9250828203905081811115610d8b57610d8a610c60565b5b9291505056fea26469706673582212206b1a28d4a0a971b49af743cc9685f11e88e410d0a786b5f6f70035a6f12ce2c764736f6c63430008150033a2646970667358221220d3b87b5e5b3cf7fb17616e91374ea2a00088b578162ad3f7b8b86d165f23a64364736f6c63430008150033",
  "immutableReferences": {},
  "source": "// SPDX-License-Identifier: MIT\npragma solidity >=0.4.22 <0.9.0;\n\nimport \"@openzeppelin/contracts/utils/math/SafeMath.sol\";\n// import \"@openzeppelin/contracts/access/Ownable.sol\";\n\ncontract RPSContract {\n  using SafeMath for uint256;\n\n  address payable party1;\n  address payable party2;\n  address payable arbiter;\n  uint256 stake1;\n  uint256 stake2;\n  bool party1Paid;\n  bool party2Paid;\n  uint256 arbiterFeePercentage;\n\n  event StakePaid(address indexed _from, uint _value);\n  event WinnerDecided(address indexed _winner, uint _value);\n  event Draw(address indexed _party1, address indexed _party2, uint _value);\n  event Log(string message);\n\n  constructor(\n    uint256 _arbiterFeePercentage\n  ) {\n    // arbiter = payable(0x3b10f9d3773172f2f74bB1Bb8EfBCF18626b3bE8);\n    // change this to match an address on your local network\n    arbiter = payable(0x0bAdd78E46E443b213B0c6B3a35ad1686c2B697c);\n    arbiterFeePercentage = _arbiterFeePercentage;\n  }\n\n  function joinContract() public payable{\n    require(party1 == address(0) || party2 == address(0), \"Game is full\");\n    require(msg.value > 0, \"Must stake a positive amount of ether\");\n    \n    if (party1 == address(0)) {\n      party1 = payable(msg.sender);\n      stake1 = msg.value;\n      party1Paid = true;\n      emit Log(\"Party 1 joined and paid stake\");\n      emit StakePaid(msg.sender, msg.value);\n    } else {\n      party2 = payable(msg.sender);\n      party2Paid = true;\n      stake2 = msg.value;\n      emit Log(\"Party 2 joined and paid stake\");\n      emit StakePaid(msg.sender, msg.value);\n    }\n  }\n\n  function decideWinner(address payable winner) public {\n    require(msg.sender == arbiter, \"Only the arbiter can decide the winner\");\n    require(\n      party1Paid && party2Paid, \"All parties must have paid their stakes\"\n    );\n    \n    uint256 totalStake = stake1.add(stake2);\n    uint256 arbiterFee = totalStake.mul(arbiterFeePercentage).div(10000);\n    uint256 winnerPrize = totalStake.sub(arbiterFee);\n\n    if (winner == arbiter) {\n      // pay arbiter fee in any case, but return each stake to the proper party minus the arbiter fee\n      arbiter.transfer(arbiterFee);\n      uint256 halfArbiterFee = arbiterFee.div(2);\n      party1.transfer(stake1.sub(halfArbiterFee));\n      party2.transfer(stake2.sub(halfArbiterFee));\n      emit Draw(party1, party2, totalStake);\n    } else {\n      arbiter.transfer(arbiterFee); // Pay arbiter their fee \n      winner.transfer(winnerPrize); // Pay winner their stake and the winner prize\n      emit WinnerDecided(winner, winnerPrize);\n    }\n  }\n}\n\n// contract RPSContractFactory is Ownable {\ncontract RPSContractFactory {\n  address[] contracts;\n\n  event ContractCreated(address indexed _contract);\n\n//  function createContract(uint arbiterFeePercentage) public onlyOwner {\n  function createContract(uint arbiterFeePercentage) public {\n    RPSContract newContract = new RPSContract(arbiterFeePercentage);\n    contracts.push(address(newContract));\n\n    emit ContractCreated(address(newContract));\n  }\n\n  // function getContracts() public onlyOwner view returns (address[] memory) {\n  function getContracts() public view returns (address[] memory) {\n    return contracts;\n  }\n}\n",
  "sourcePath": "/root/rps-contracts/contracts/RPSContractFactory.sol",
  "compiler": {
    "name": "solc",
    "version": "0.8.21+commit.d9974bed.Emscripten.clang"
  },
  "schemaVersion": "3.4.15",
  "updatedAt": "2023-09-20T18:58:57.685Z",
  "networkType": "ethereum",
  "devdoc": {
    "kind": "dev",
    "methods": {},
    "version": 1
  },
  "userdoc": {
    "kind": "user",
    "methods": {},
    "version": 1
  }
}