{
  "contractName": "RPSContractFactory",
  "abi": [
    {
      "inputs": [],
      "stateMutability": "nonpayable",
      "type": "constructor"
    },
    {
      "anonymous": false,
      "inputs": [
        {
          "indexed": true,
          "internalType": "address",
          "name": "_contract",
          "type": "address"
        }
      ],
      "name": "ContractCreated",
      "type": "event"
    },
    {
      "inputs": [
        {
          "internalType": "uint256",
          "name": "arbiterFeePercentage",
          "type": "uint256"
        }
      ],
      "name": "createContract",
      "outputs": [],
      "stateMutability": "nonpayable",
      "type": "function"
    },
    {
      "inputs": [],
      "name": "getContracts",
      "outputs": [
        {
          "internalType": "address[]",
          "name": "",
          "type": "address[]"
        }
      ],
      "stateMutability": "view",
      "type": "function",
      "constant": true
    },
    {
      "inputs": [],
      "name": "getLatestContract",
      "outputs": [
        {
          "internalType": "address",
          "name": "",
          "type": "address"
        }
      ],
      "stateMutability": "view",
      "type": "function",
      "constant": true
    }
  ],
  "bytecode": "0x608060405234801561000f575f80fd5b50739153fef7c1b94e3483c44df10c9ce9744daed0b760015f6101000a81548173ffffffffffffffffffffffffffffffffffffffff021916908373ffffffffffffffffffffffffffffffffffffffff160217905550611bc4806100715f395ff3fe608060405234801561000f575f80fd5b506004361061003f575f3560e01c80639db8d7d514610043578063c3a2a93a1461005f578063ff5446f01461007d575b5f80fd5b61005d60048036038101906100589190610487565b61009b565b005b610067610204565b6040516100749190610599565b60405180910390f35b61008561031d565b60405161009291906105c8565b60405180910390f35b60015f9054906101000a900473ffffffffffffffffffffffffffffffffffffffff1673ffffffffffffffffffffffffffffffffffffffff163373ffffffffffffffffffffffffffffffffffffffff161461012a576040517f08c379a000000000000000000000000000000000000000000000000000000000815260040161012190610661565b60405180910390fd5b5f8160405161013890610443565b610142919061068e565b604051809103905ff08015801561015b573d5f803e3d5ffd5b5090505f81908060018154018082558091505060019003905f5260205f20015f9091909190916101000a81548173ffffffffffffffffffffffffffffffffffffffff021916908373ffffffffffffffffffffffffffffffffffffffff1602179055508073ffffffffffffffffffffffffffffffffffffffff167fcf78cf0d6f3d8371e1075c69c492ab4ec5d8cf23a1a239b6a51a1d00be7ca31260405160405180910390a25050565b606060015f9054906101000a900473ffffffffffffffffffffffffffffffffffffffff1673ffffffffffffffffffffffffffffffffffffffff163373ffffffffffffffffffffffffffffffffffffffff1614610295576040517f08c379a000000000000000000000000000000000000000000000000000000000815260040161028c90610717565b60405180910390fd5b5f80548060200260200160405190810160405280929190818152602001828054801561031357602002820191905f5260205f20905b815f9054906101000a900473ffffffffffffffffffffffffffffffffffffffff1673ffffffffffffffffffffffffffffffffffffffff16815260200190600101908083116102ca575b5050505050905090565b5f60015f9054906101000a900473ffffffffffffffffffffffffffffffffffffffff1673ffffffffffffffffffffffffffffffffffffffff163373ffffffffffffffffffffffffffffffffffffffff16146103ad576040517f08c379a00000000000000000000000000000000000000000000000000000000081526004016103a4906107a5565b60405180910390fd5b5f8080549050116103f3576040517f08c379a00000000000000000000000000000000000000000000000000000000081526004016103ea9061080d565b60405180910390fd5b5f60015f805490506104059190610858565b815481106104165761041561088b565b5b905f5260205f20015f9054906101000a900473ffffffffffffffffffffffffffffffffffffffff16905090565b6112d6806108b983390190565b5f80fd5b5f819050919050565b61046681610454565b8114610470575f80fd5b50565b5f813590506104818161045d565b92915050565b5f6020828403121561049c5761049b610450565b5b5f6104a984828501610473565b91505092915050565b5f81519050919050565b5f82825260208201905092915050565b5f819050602082019050919050565b5f73ffffffffffffffffffffffffffffffffffffffff82169050919050565b5f610504826104db565b9050919050565b610514816104fa565b82525050565b5f610525838361050b565b60208301905092915050565b5f602082019050919050565b5f610547826104b2565b61055181856104bc565b935061055c836104cc565b805f5b8381101561058c578151610573888261051a565b975061057e83610531565b92505060018101905061055f565b5085935050505092915050565b5f6020820190508181035f8301526105b1818461053d565b905092915050565b6105c2816104fa565b82525050565b5f6020820190506105db5f8301846105b9565b92915050565b5f82825260208201905092915050565b7f4f6e6c792074686520636f6e7472616374206f776e65722063616e20637265615f8201527f7465206120636f6e747261637400000000000000000000000000000000000000602082015250565b5f61064b602d836105e1565b9150610656826105f1565b604082019050919050565b5f6020820190508181035f8301526106788161063f565b9050919050565b61068881610454565b82525050565b5f6020820190506106a15f83018461067f565b92915050565b7f4f6e6c792074686520636f6e7472616374206f776e65722063616e20766965775f8201527f20616c6c20636f6e747261637473000000000000000000000000000000000000602082015250565b5f610701602e836105e1565b915061070c826106a7565b604082019050919050565b5f6020820190508181035f83015261072e816106f5565b9050919050565b7f4f6e6c792074686520636f6e7472616374206f776e65722063616e20676574205f8201527f746865206c617465737420636f6e747261637400000000000000000000000000602082015250565b5f61078f6033836105e1565b915061079a82610735565b604082019050919050565b5f6020820190508181035f8301526107bc81610783565b9050919050565b7f4e6f20636f6e74726163747320617661696c61626c65000000000000000000005f82015250565b5f6107f76016836105e1565b9150610802826107c3565b602082019050919050565b5f6020820190508181035f830152610824816107eb565b9050919050565b7f4e487b71000000000000000000000000000000000000000000000000000000005f52601160045260245ffd5b5f61086282610454565b915061086d83610454565b92508282039050818111156108855761088461082b565b5b92915050565b7f4e487b71000000000000000000000000000000000000000000000000000000005f52603260045260245ffdfe608060405234801562000010575f80fd5b50604051620012d6380380620012d68339818101604052810190620000369190620000d4565b73e17169de511d9cbdb26bcbf81a1a8a57b5b83efb60025f6101000a81548173ffffffffffffffffffffffffffffffffffffffff021916908373ffffffffffffffffffffffffffffffffffffffff160217905550806006819055505062000104565b5f80fd5b5f819050919050565b620000b0816200009c565b8114620000bb575f80fd5b50565b5f81519050620000ce81620000a5565b92915050565b5f60208284031215620000ec57620000eb62000098565b5b5f620000fb84828501620000be565b91505092915050565b6111c480620001125f395ff3fe608060405260043610610033575f3560e01c8063787dc41b14610037578063da8e303b1461005f578063e1631c1b14610087575b5f80fd5b348015610042575f80fd5b5061005d60048036038101906100589190610b65565b610091565b005b34801561006a575f80fd5b5061008560048036038101906100809190610b65565b6102b1565b005b61008f61076b565b005b60025f9054906101000a900473ffffffffffffffffffffffffffffffffffffffff1673ffffffffffffffffffffffffffffffffffffffff163373ffffffffffffffffffffffffffffffffffffffff1614610120576040517f08c379a000000000000000000000000000000000000000000000000000000000815260040161011790610c10565b60405180910390fd5b5f8054906101000a900473ffffffffffffffffffffffffffffffffffffffff1673ffffffffffffffffffffffffffffffffffffffff168173ffffffffffffffffffffffffffffffffffffffff1603610211575f8054906101000a900473ffffffffffffffffffffffffffffffffffffffff1673ffffffffffffffffffffffffffffffffffffffff166108fc60035490811502906040515f60405180830381858888f193505050501580156101d6573d5f803e3d5ffd5b507fcf34ef537ac33ee1ac626ca1587a0a7e8e51561e5514f8cb36afa1c5102b3bab60405161020490610c9e565b60405180910390a16102ae565b60015f9054906101000a900473ffffffffffffffffffffffffffffffffffffffff1673ffffffffffffffffffffffffffffffffffffffff166108fc60045490811502906040515f60405180830381858888f19350505050158015610277573d5f803e3d5ffd5b507fcf34ef537ac33ee1ac626ca1587a0a7e8e51561e5514f8cb36afa1c5102b3bab6040516102a590610d2c565b60405180910390a15b50565b60025f9054906101000a900473ffffffffffffffffffffffffffffffffffffffff1673ffffffffffffffffffffffffffffffffffffffff163373ffffffffffffffffffffffffffffffffffffffff1614610340576040517f08c379a000000000000000000000000000000000000000000000000000000000815260040161033790610dba565b60405180910390fd5b60055f9054906101000a900460ff1680156103675750600560019054906101000a900460ff165b6103a6576040517f08c379a000000000000000000000000000000000000000000000000000000000815260040161039d90610e48565b60405180910390fd5b5f6103be600454600354610ab390919063ffffffff16565b90505f6103ea6127106103dc60065485610ac890919063ffffffff16565b610add90919063ffffffff16565b90505f6104008284610af290919063ffffffff16565b905060025f9054906101000a900473ffffffffffffffffffffffffffffffffffffffff1673ffffffffffffffffffffffffffffffffffffffff168473ffffffffffffffffffffffffffffffffffffffff160361066d5760025f9054906101000a900473ffffffffffffffffffffffffffffffffffffffff1673ffffffffffffffffffffffffffffffffffffffff166108fc8390811502906040515f60405180830381858888f193505050501580156104ba573d5f803e3d5ffd5b505f6104d0600284610add90919063ffffffff16565b90505f8054906101000a900473ffffffffffffffffffffffffffffffffffffffff1673ffffffffffffffffffffffffffffffffffffffff166108fc61052083600354610af290919063ffffffff16565b90811502906040515f60405180830381858888f19350505050158015610548573d5f803e3d5ffd5b5060015f9054906101000a900473ffffffffffffffffffffffffffffffffffffffff1673ffffffffffffffffffffffffffffffffffffffff166108fc61059983600454610af290919063ffffffff16565b90811502906040515f60405180830381858888f193505050501580156105c1573d5f803e3d5ffd5b5060015f9054906101000a900473ffffffffffffffffffffffffffffffffffffffff1673ffffffffffffffffffffffffffffffffffffffff165f8054906101000a900473ffffffffffffffffffffffffffffffffffffffff1673ffffffffffffffffffffffffffffffffffffffff167f2899dbc9fe19019184ec4a79aec9aab083d48c07007a18ad4f67ded7c194e4318660405161065f9190610e7e565b60405180910390a350610765565b60025f9054906101000a900473ffffffffffffffffffffffffffffffffffffffff1673ffffffffffffffffffffffffffffffffffffffff166108fc8390811502906040515f60405180830381858888f193505050501580156106d1573d5f803e3d5ffd5b508373ffffffffffffffffffffffffffffffffffffffff166108fc8290811502906040515f60405180830381858888f19350505050158015610715573d5f803e3d5ffd5b508373ffffffffffffffffffffffffffffffffffffffff167f42b05b57614f1e1fd01bc9c8045fb20c1e4c0016d13950a593e1e203d39341328260405161075c9190610e7e565b60405180910390a25b50505050565b5f73ffffffffffffffffffffffffffffffffffffffff165f8054906101000a900473ffffffffffffffffffffffffffffffffffffffff1673ffffffffffffffffffffffffffffffffffffffff16148061081057505f73ffffffffffffffffffffffffffffffffffffffff1660015f9054906101000a900473ffffffffffffffffffffffffffffffffffffffff1673ffffffffffffffffffffffffffffffffffffffff16145b61084f576040517f08c379a000000000000000000000000000000000000000000000000000000000815260040161084690610ee1565b60405180910390fd5b5f3411610891576040517f08c379a000000000000000000000000000000000000000000000000000000000815260040161088890610f6f565b60405180910390fd5b5f73ffffffffffffffffffffffffffffffffffffffff165f8054906101000a900473ffffffffffffffffffffffffffffffffffffffff1673ffffffffffffffffffffffffffffffffffffffff16036109cb57335f806101000a81548173ffffffffffffffffffffffffffffffffffffffff021916908373ffffffffffffffffffffffffffffffffffffffff16021790555034600381905550600160055f6101000a81548160ff0219169083151502179055507fcf34ef537ac33ee1ac626ca1587a0a7e8e51561e5514f8cb36afa1c5102b3bab60405161097090610fd7565b60405180910390a13373ffffffffffffffffffffffffffffffffffffffff167fe16d00ef5966e9f8b7d7cc07929bebed9cd2dfed36a48d2299e1c95a1d3f451c346040516109be9190610e7e565b60405180910390a2610ab1565b3360015f6101000a81548173ffffffffffffffffffffffffffffffffffffffff021916908373ffffffffffffffffffffffffffffffffffffffff1602179055506001600560016101000a81548160ff021916908315150217905550346004819055507fcf34ef537ac33ee1ac626ca1587a0a7e8e51561e5514f8cb36afa1c5102b3bab604051610a5a9061103f565b60405180910390a13373ffffffffffffffffffffffffffffffffffffffff167fe16d00ef5966e9f8b7d7cc07929bebed9cd2dfed36a48d2299e1c95a1d3f451c34604051610aa89190610e7e565b60405180910390a25b565b5f8183610ac0919061108a565b905092915050565b5f8183610ad591906110bd565b905092915050565b5f8183610aea919061112b565b905092915050565b5f8183610aff919061115b565b905092915050565b5f80fd5b5f73ffffffffffffffffffffffffffffffffffffffff82169050919050565b5f610b3482610b0b565b9050919050565b610b4481610b2a565b8114610b4e575f80fd5b50565b5f81359050610b5f81610b3b565b92915050565b5f60208284031215610b7a57610b79610b07565b5b5f610b8784828501610b51565b91505092915050565b5f82825260208201905092915050565b7f4f6e6c792074686520617262697465722063616e2069737375652061207265665f8201527f756e640000000000000000000000000000000000000000000000000000000000602082015250565b5f610bfa602383610b90565b9150610c0582610ba0565b604082019050919050565b5f6020820190508181035f830152610c2781610bee565b9050919050565b7f4172626974657220726566756e64656420746865207374616b6520746f2050615f8201527f7274792031000000000000000000000000000000000000000000000000000000602082015250565b5f610c88602583610b90565b9150610c9382610c2e565b604082019050919050565b5f6020820190508181035f830152610cb581610c7c565b9050919050565b7f4172626974657220726566756e64656420746865207374616b6520746f2050615f8201527f7274792032000000000000000000000000000000000000000000000000000000602082015250565b5f610d16602583610b90565b9150610d2182610cbc565b604082019050919050565b5f6020820190508181035f830152610d4381610d0a565b9050919050565b7f4f6e6c792074686520617262697465722063616e2064656369646520746865205f8201527f77696e6e65720000000000000000000000000000000000000000000000000000602082015250565b5f610da4602683610b90565b9150610daf82610d4a565b604082019050919050565b5f6020820190508181035f830152610dd181610d98565b9050919050565b7f416c6c2070617274696573206d757374206861766520706169642074686569725f8201527f207374616b657300000000000000000000000000000000000000000000000000602082015250565b5f610e32602783610b90565b9150610e3d82610dd8565b604082019050919050565b5f6020820190508181035f830152610e5f81610e26565b9050919050565b5f819050919050565b610e7881610e66565b82525050565b5f602082019050610e915f830184610e6f565b92915050565b7f47616d652069732066756c6c00000000000000000000000000000000000000005f82015250565b5f610ecb600c83610b90565b9150610ed682610e97565b602082019050919050565b5f6020820190508181035f830152610ef881610ebf565b9050919050565b7f4d757374207374616b65206120706f73697469766520616d6f756e74206f66205f8201527f6574686572000000000000000000000000000000000000000000000000000000602082015250565b5f610f59602583610b90565b9150610f6482610eff565b604082019050919050565b5f6020820190508181035f830152610f8681610f4d565b9050919050565b7f50617274792031206a6f696e656420616e642070616964207374616b650000005f82015250565b5f610fc1601d83610b90565b9150610fcc82610f8d565b602082019050919050565b5f6020820190508181035f830152610fee81610fb5565b9050919050565b7f50617274792032206a6f696e656420616e642070616964207374616b650000005f82015250565b5f611029601d83610b90565b915061103482610ff5565b602082019050919050565b5f6020820190508181035f8301526110568161101d565b9050919050565b7f4e487b71000000000000000000000000000000000000000000000000000000005f52601160045260245ffd5b5f61109482610e66565b915061109f83610e66565b92508282019050808211156110b7576110b661105d565b5b92915050565b5f6110c782610e66565b91506110d283610e66565b92508282026110e081610e66565b915082820484148315176110f7576110f661105d565b5b5092915050565b7f4e487b71000000000000000000000000000000000000000000000000000000005f52601260045260245ffd5b5f61113582610e66565b915061114083610e66565b9250826111505761114f6110fe565b5b828204905092915050565b5f61116582610e66565b915061117083610e66565b92508282039050818111156111885761118761105d565b5b9291505056fea26469706673582212207858fd4fa9e1097e681fc18968e61215ee1ff072d398aac0d30b0734584aa9c964736f6c63430008150033a264697066735822122008913c47e0fefbb7447550306ab177bf57616b1fa5e77c5aaac2bc1dd8a436b364736f6c63430008150033",
  "immutableReferences": {},
  "source": "// SPDX-License-Identifier: MIT\npragma solidity >=0.4.22 <0.9.0;\n\nimport \"@openzeppelin/contracts/utils/math/SafeMath.sol\";\n\ncontract RPSContract {\n  using SafeMath for uint256;\n\n  address payable party1;\n  address payable party2;\n  address payable arbiter;\n  uint256 stake1;\n  uint256 stake2;\n  bool party1Paid;\n  bool party2Paid;\n  uint256 arbiterFeePercentage;\n\n  event StakePaid(address indexed _from, uint _value);\n  event WinnerDecided(address indexed _winner, uint _value);\n  event Draw(address indexed _party1, address indexed _party2, uint _value);\n  event Log(string message);\n\n  constructor(uint256 _arbiterFeePercentage) {\n    // arbiter = payable(0x3b10f9d3773172f2f74bB1Bb8EfBCF18626b3bE8);\n    // change this to match an address on your local network\n    arbiter = payable(0xE17169DE511D9CbDb26bcBF81a1A8A57B5b83efb);\n    arbiterFeePercentage = _arbiterFeePercentage;\n  }\n\n  function joinContract() public payable {\n    require(party1 == address(0) || party2 == address(0), \"Game is full\");\n    require(msg.value > 0, \"Must stake a positive amount of ether\");\n\n    if (party1 == address(0)) {\n      party1 = payable(msg.sender);\n      stake1 = msg.value;\n      party1Paid = true;\n      emit Log(\"Party 1 joined and paid stake\");\n      emit StakePaid(msg.sender, msg.value);\n    } else {\n      party2 = payable(msg.sender);\n      party2Paid = true;\n      stake2 = msg.value;\n      emit Log(\"Party 2 joined and paid stake\");\n      emit StakePaid(msg.sender, msg.value);\n    }\n  }\n\n  function refundWager(address payable payee) public {\n    require(\n      msg.sender == arbiter,\n      \"Only the arbiter can issue a refund\"\n    );\n\n    if (payee == party1) {\n      party1.transfer(stake1);\n      emit Log(\"Arbiter refunded the stake to Party 1\");\n    } else {\n      party2.transfer(stake2);\n      emit Log(\"Arbiter refunded the stake to Party 2\");\n    }\n  }\n\n  function decideWinner(address payable winner) public {\n    require(\n      msg.sender == arbiter,\n      \"Only the arbiter can decide the winner\"\n    );\n    require(\n      party1Paid && party2Paid,\n      \"All parties must have paid their stakes\"\n    );\n\n    uint256 totalStake = stake1.add(stake2);\n    uint256 arbiterFee = totalStake.mul(arbiterFeePercentage).div(10000);\n    uint256 winnerPrize = totalStake.sub(arbiterFee);\n\n    if (winner == arbiter) {\n      // pay arbiter fee in any case, but return each stake to the proper party minus the arbiter fee\n      arbiter.transfer(arbiterFee);\n      uint256 halfArbiterFee = arbiterFee.div(2);\n      party1.transfer(stake1.sub(halfArbiterFee));\n      party2.transfer(stake2.sub(halfArbiterFee));\n      emit Draw(party1, party2, totalStake);\n    } else {\n      arbiter.transfer(arbiterFee); // Pay arbiter their fee\n      winner.transfer(winnerPrize); // Pay winner their stake and the winner prize\n      emit WinnerDecided(winner, winnerPrize);\n    }\n  }\n}\n\ncontract RPSContractFactory {\n  address[] contracts;\n  address payable contractOwner;\n\n  event ContractCreated(address indexed _contract);\n\n  constructor() {\n    // contractOwner = payable(0xE04870e9b9f26DFA4976307E721E7Ee2f979f874);\n    // change this to match an address on your local network\n    contractOwner = payable(0x9153Fef7c1b94e3483c44df10c9ce9744DAeD0b7);\n  }\n\n  function createContract(uint arbiterFeePercentage) public {\n    require(\n      msg.sender == contractOwner,\n      \"Only the contract owner can create a contract\"\n    );\n    RPSContract newContract = new RPSContract(arbiterFeePercentage);\n    contracts.push(address(newContract));\n\n    emit ContractCreated(address(newContract));\n  }\n\n  function getContracts() public view returns (address[] memory) {\n    require(\n      msg.sender == contractOwner,\n      \"Only the contract owner can view all contracts\"\n    );\n    return contracts;\n  }\n\n  function getLatestContract() public view returns (address) {\n    require(\n      msg.sender == contractOwner,\n      \"Only the contract owner can get the latest contract\"\n    );\n    require(contracts.length > 0, \"No contracts available\");\n    return contracts[contracts.length - 1];\n  }\n}\n",
  "sourcePath": "/root/rps-contracts/contracts/RPSContractFactory.sol",
  "compiler": {
    "name": "solc",
    "version": "0.8.21+commit.d9974bed.Emscripten.clang"
  },
  "schemaVersion": "3.4.15",
  "updatedAt": "2023-09-28T00:22:14.016Z",
  "networkType": "ethereum",
  "devdoc": {
    "kind": "dev",
    "methods": {},
    "version": 1
  },
  "userdoc": {
    "kind": "user",
    "methods": {},
    "version": 1
  }
}