{
  "contractName": "RPSContractFactory",
  "abi": [
    {
      "anonymous": false,
      "inputs": [
        {
          "indexed": true,
          "internalType": "address",
          "name": "_contract",
          "type": "address"
        }
      ],
      "name": "ContractCreated",
      "type": "event"
    },
    {
      "anonymous": false,
      "inputs": [
        {
          "indexed": true,
          "internalType": "address",
          "name": "previousOwner",
          "type": "address"
        },
        {
          "indexed": true,
          "internalType": "address",
          "name": "newOwner",
          "type": "address"
        }
      ],
      "name": "OwnershipTransferred",
      "type": "event"
    },
    {
      "inputs": [],
      "name": "owner",
      "outputs": [
        {
          "internalType": "address",
          "name": "",
          "type": "address"
        }
      ],
      "stateMutability": "view",
      "type": "function",
      "constant": true
    },
    {
      "inputs": [],
      "name": "renounceOwnership",
      "outputs": [],
      "stateMutability": "nonpayable",
      "type": "function"
    },
    {
      "inputs": [
        {
          "internalType": "address",
          "name": "newOwner",
          "type": "address"
        }
      ],
      "name": "transferOwnership",
      "outputs": [],
      "stateMutability": "nonpayable",
      "type": "function"
    },
    {
      "inputs": [
        {
          "internalType": "uint256",
          "name": "arbiterFeePercentage",
          "type": "uint256"
        }
      ],
      "name": "createContract",
      "outputs": [],
      "stateMutability": "nonpayable",
      "type": "function"
    },
    {
      "inputs": [],
      "name": "getContracts",
      "outputs": [
        {
          "internalType": "address[]",
          "name": "",
          "type": "address[]"
        }
      ],
      "stateMutability": "view",
      "type": "function",
      "constant": true
    },
    {
      "inputs": [],
      "name": "getLatestContract",
      "outputs": [
        {
          "internalType": "address",
          "name": "",
          "type": "address"
        }
      ],
      "stateMutability": "view",
      "type": "function",
      "constant": true
    }
  ],
  "bytecode": "0x608060405234801561000f575f80fd5b5061002c61002161003160201b60201c565b61003860201b60201c565b6100f9565b5f33905090565b5f805f9054906101000a900473ffffffffffffffffffffffffffffffffffffffff169050815f806101000a81548173ffffffffffffffffffffffffffffffffffffffff021916908373ffffffffffffffffffffffffffffffffffffffff1602179055508173ffffffffffffffffffffffffffffffffffffffff168173ffffffffffffffffffffffffffffffffffffffff167f8be0079c531659141344cd1fd0a4f28419497f9722a3daafe3b4186f6b6457e060405160405180910390a35050565b611c3a806101065f395ff3fe608060405234801561000f575f80fd5b5060043610610060575f3560e01c8063715018a6146100645780638da5cb5b1461006e5780639db8d7d51461008c578063c3a2a93a146100a8578063f2fde38b146100c6578063ff5446f0146100e2575b5f80fd5b61006c610100565b005b610076610113565b6040516100839190610564565b60405180910390f35b6100a660048036038101906100a191906105b4565b61013a565b005b6100b061021d565b6040516100bd9190610696565b60405180910390f35b6100e060048036038101906100db91906106e0565b6102b0565b005b6100ea610332565b6040516100f79190610564565b60405180910390f35b6101086103d2565b6101115f610450565b565b5f805f9054906101000a900473ffffffffffffffffffffffffffffffffffffffff16905090565b6101426103d2565b5f8160405161015090610518565b61015a919061071a565b604051809103905ff080158015610173573d5f803e3d5ffd5b509050600181908060018154018082558091505060019003905f5260205f20015f9091909190916101000a81548173ffffffffffffffffffffffffffffffffffffffff021916908373ffffffffffffffffffffffffffffffffffffffff1602179055508073ffffffffffffffffffffffffffffffffffffffff167fcf78cf0d6f3d8371e1075c69c492ab4ec5d8cf23a1a239b6a51a1d00be7ca31260405160405180910390a25050565b60606102276103d2565b60018054806020026020016040519081016040528092919081815260200182805480156102a657602002820191905f5260205f20905b815f9054906101000a900473ffffffffffffffffffffffffffffffffffffffff1673ffffffffffffffffffffffffffffffffffffffff168152602001906001019080831161025d575b5050505050905090565b6102b86103d2565b5f73ffffffffffffffffffffffffffffffffffffffff168173ffffffffffffffffffffffffffffffffffffffff1603610326576040517f08c379a000000000000000000000000000000000000000000000000000000000815260040161031d906107b3565b60405180910390fd5b61032f81610450565b50565b5f61033b6103d2565b5f60018054905011610382576040517f08c379a00000000000000000000000000000000000000000000000000000000081526004016103799061081b565b60405180910390fd5b60018080805490506103949190610866565b815481106103a5576103a4610899565b5b905f5260205f20015f9054906101000a900473ffffffffffffffffffffffffffffffffffffffff16905090565b6103da610511565b73ffffffffffffffffffffffffffffffffffffffff166103f8610113565b73ffffffffffffffffffffffffffffffffffffffff161461044e576040517f08c379a000000000000000000000000000000000000000000000000000000000815260040161044590610910565b60405180910390fd5b565b5f805f9054906101000a900473ffffffffffffffffffffffffffffffffffffffff169050815f806101000a81548173ffffffffffffffffffffffffffffffffffffffff021916908373ffffffffffffffffffffffffffffffffffffffff1602179055508173ffffffffffffffffffffffffffffffffffffffff168173ffffffffffffffffffffffffffffffffffffffff167f8be0079c531659141344cd1fd0a4f28419497f9722a3daafe3b4186f6b6457e060405160405180910390a35050565b5f33905090565b6112d68061092f83390190565b5f73ffffffffffffffffffffffffffffffffffffffff82169050919050565b5f61054e82610525565b9050919050565b61055e81610544565b82525050565b5f6020820190506105775f830184610555565b92915050565b5f80fd5b5f819050919050565b61059381610581565b811461059d575f80fd5b50565b5f813590506105ae8161058a565b92915050565b5f602082840312156105c9576105c861057d565b5b5f6105d6848285016105a0565b91505092915050565b5f81519050919050565b5f82825260208201905092915050565b5f819050602082019050919050565b61061181610544565b82525050565b5f6106228383610608565b60208301905092915050565b5f602082019050919050565b5f610644826105df565b61064e81856105e9565b9350610659836105f9565b805f5b838110156106895781516106708882610617565b975061067b8361062e565b92505060018101905061065c565b5085935050505092915050565b5f6020820190508181035f8301526106ae818461063a565b905092915050565b6106bf81610544565b81146106c9575f80fd5b50565b5f813590506106da816106b6565b92915050565b5f602082840312156106f5576106f461057d565b5b5f610702848285016106cc565b91505092915050565b61071481610581565b82525050565b5f60208201905061072d5f83018461070b565b92915050565b5f82825260208201905092915050565b7f4f776e61626c653a206e6577206f776e657220697320746865207a65726f20615f8201527f6464726573730000000000000000000000000000000000000000000000000000602082015250565b5f61079d602683610733565b91506107a882610743565b604082019050919050565b5f6020820190508181035f8301526107ca81610791565b9050919050565b7f4e6f20636f6e74726163747320617661696c61626c65000000000000000000005f82015250565b5f610805601683610733565b9150610810826107d1565b602082019050919050565b5f6020820190508181035f830152610832816107f9565b9050919050565b7f4e487b71000000000000000000000000000000000000000000000000000000005f52601160045260245ffd5b5f61087082610581565b915061087b83610581565b925082820390508181111561089357610892610839565b5b92915050565b7f4e487b71000000000000000000000000000000000000000000000000000000005f52603260045260245ffd5b7f4f776e61626c653a2063616c6c6572206973206e6f7420746865206f776e65725f82015250565b5f6108fa602083610733565b9150610905826108c6565b602082019050919050565b5f6020820190508181035f830152610927816108ee565b905091905056fe608060405234801562000010575f80fd5b50604051620012d6380380620012d68339818101604052810190620000369190620000d4565b73a590a5a230e185ab602ee46fddc6a96f7bc9f21960025f6101000a81548173ffffffffffffffffffffffffffffffffffffffff021916908373ffffffffffffffffffffffffffffffffffffffff160217905550806006819055505062000104565b5f80fd5b5f819050919050565b620000b0816200009c565b8114620000bb575f80fd5b50565b5f81519050620000ce81620000a5565b92915050565b5f60208284031215620000ec57620000eb62000098565b5b5f620000fb84828501620000be565b91505092915050565b6111c480620001125f395ff3fe608060405260043610610033575f3560e01c8063787dc41b14610037578063da8e303b1461005f578063e1631c1b14610087575b5f80fd5b348015610042575f80fd5b5061005d60048036038101906100589190610b65565b610091565b005b34801561006a575f80fd5b5061008560048036038101906100809190610b65565b6102b1565b005b61008f61076b565b005b60025f9054906101000a900473ffffffffffffffffffffffffffffffffffffffff1673ffffffffffffffffffffffffffffffffffffffff163373ffffffffffffffffffffffffffffffffffffffff1614610120576040517f08c379a000000000000000000000000000000000000000000000000000000000815260040161011790610c10565b60405180910390fd5b5f8054906101000a900473ffffffffffffffffffffffffffffffffffffffff1673ffffffffffffffffffffffffffffffffffffffff168173ffffffffffffffffffffffffffffffffffffffff1603610211575f8054906101000a900473ffffffffffffffffffffffffffffffffffffffff1673ffffffffffffffffffffffffffffffffffffffff166108fc60035490811502906040515f60405180830381858888f193505050501580156101d6573d5f803e3d5ffd5b507fcf34ef537ac33ee1ac626ca1587a0a7e8e51561e5514f8cb36afa1c5102b3bab60405161020490610c9e565b60405180910390a16102ae565b60015f9054906101000a900473ffffffffffffffffffffffffffffffffffffffff1673ffffffffffffffffffffffffffffffffffffffff166108fc60045490811502906040515f60405180830381858888f19350505050158015610277573d5f803e3d5ffd5b507fcf34ef537ac33ee1ac626ca1587a0a7e8e51561e5514f8cb36afa1c5102b3bab6040516102a590610d2c565b60405180910390a15b50565b60025f9054906101000a900473ffffffffffffffffffffffffffffffffffffffff1673ffffffffffffffffffffffffffffffffffffffff163373ffffffffffffffffffffffffffffffffffffffff1614610340576040517f08c379a000000000000000000000000000000000000000000000000000000000815260040161033790610dba565b60405180910390fd5b60055f9054906101000a900460ff1680156103675750600560019054906101000a900460ff165b6103a6576040517f08c379a000000000000000000000000000000000000000000000000000000000815260040161039d90610e48565b60405180910390fd5b5f6103be600454600354610ab390919063ffffffff16565b90505f6103ea6127106103dc60065485610ac890919063ffffffff16565b610add90919063ffffffff16565b90505f6104008284610af290919063ffffffff16565b905060025f9054906101000a900473ffffffffffffffffffffffffffffffffffffffff1673ffffffffffffffffffffffffffffffffffffffff168473ffffffffffffffffffffffffffffffffffffffff160361066d5760025f9054906101000a900473ffffffffffffffffffffffffffffffffffffffff1673ffffffffffffffffffffffffffffffffffffffff166108fc8390811502906040515f60405180830381858888f193505050501580156104ba573d5f803e3d5ffd5b505f6104d0600284610add90919063ffffffff16565b90505f8054906101000a900473ffffffffffffffffffffffffffffffffffffffff1673ffffffffffffffffffffffffffffffffffffffff166108fc61052083600354610af290919063ffffffff16565b90811502906040515f60405180830381858888f19350505050158015610548573d5f803e3d5ffd5b5060015f9054906101000a900473ffffffffffffffffffffffffffffffffffffffff1673ffffffffffffffffffffffffffffffffffffffff166108fc61059983600454610af290919063ffffffff16565b90811502906040515f60405180830381858888f193505050501580156105c1573d5f803e3d5ffd5b5060015f9054906101000a900473ffffffffffffffffffffffffffffffffffffffff1673ffffffffffffffffffffffffffffffffffffffff165f8054906101000a900473ffffffffffffffffffffffffffffffffffffffff1673ffffffffffffffffffffffffffffffffffffffff167f2899dbc9fe19019184ec4a79aec9aab083d48c07007a18ad4f67ded7c194e4318660405161065f9190610e7e565b60405180910390a350610765565b60025f9054906101000a900473ffffffffffffffffffffffffffffffffffffffff1673ffffffffffffffffffffffffffffffffffffffff166108fc8390811502906040515f60405180830381858888f193505050501580156106d1573d5f803e3d5ffd5b508373ffffffffffffffffffffffffffffffffffffffff166108fc8290811502906040515f60405180830381858888f19350505050158015610715573d5f803e3d5ffd5b508373ffffffffffffffffffffffffffffffffffffffff167f42b05b57614f1e1fd01bc9c8045fb20c1e4c0016d13950a593e1e203d39341328260405161075c9190610e7e565b60405180910390a25b50505050565b5f73ffffffffffffffffffffffffffffffffffffffff165f8054906101000a900473ffffffffffffffffffffffffffffffffffffffff1673ffffffffffffffffffffffffffffffffffffffff16148061081057505f73ffffffffffffffffffffffffffffffffffffffff1660015f9054906101000a900473ffffffffffffffffffffffffffffffffffffffff1673ffffffffffffffffffffffffffffffffffffffff16145b61084f576040517f08c379a000000000000000000000000000000000000000000000000000000000815260040161084690610ee1565b60405180910390fd5b5f3411610891576040517f08c379a000000000000000000000000000000000000000000000000000000000815260040161088890610f6f565b60405180910390fd5b5f73ffffffffffffffffffffffffffffffffffffffff165f8054906101000a900473ffffffffffffffffffffffffffffffffffffffff1673ffffffffffffffffffffffffffffffffffffffff16036109cb57335f806101000a81548173ffffffffffffffffffffffffffffffffffffffff021916908373ffffffffffffffffffffffffffffffffffffffff16021790555034600381905550600160055f6101000a81548160ff0219169083151502179055507fcf34ef537ac33ee1ac626ca1587a0a7e8e51561e5514f8cb36afa1c5102b3bab60405161097090610fd7565b60405180910390a13373ffffffffffffffffffffffffffffffffffffffff167fe16d00ef5966e9f8b7d7cc07929bebed9cd2dfed36a48d2299e1c95a1d3f451c346040516109be9190610e7e565b60405180910390a2610ab1565b3360015f6101000a81548173ffffffffffffffffffffffffffffffffffffffff021916908373ffffffffffffffffffffffffffffffffffffffff1602179055506001600560016101000a81548160ff021916908315150217905550346004819055507fcf34ef537ac33ee1ac626ca1587a0a7e8e51561e5514f8cb36afa1c5102b3bab604051610a5a9061103f565b60405180910390a13373ffffffffffffffffffffffffffffffffffffffff167fe16d00ef5966e9f8b7d7cc07929bebed9cd2dfed36a48d2299e1c95a1d3f451c34604051610aa89190610e7e565b60405180910390a25b565b5f8183610ac0919061108a565b905092915050565b5f8183610ad591906110bd565b905092915050565b5f8183610aea919061112b565b905092915050565b5f8183610aff919061115b565b905092915050565b5f80fd5b5f73ffffffffffffffffffffffffffffffffffffffff82169050919050565b5f610b3482610b0b565b9050919050565b610b4481610b2a565b8114610b4e575f80fd5b50565b5f81359050610b5f81610b3b565b92915050565b5f60208284031215610b7a57610b79610b07565b5b5f610b8784828501610b51565b91505092915050565b5f82825260208201905092915050565b7f4f6e6c792074686520617262697465722063616e2069737375652061207265665f8201527f756e640000000000000000000000000000000000000000000000000000000000602082015250565b5f610bfa602383610b90565b9150610c0582610ba0565b604082019050919050565b5f6020820190508181035f830152610c2781610bee565b9050919050565b7f4172626974657220726566756e64656420746865207374616b6520746f2050615f8201527f7274792031000000000000000000000000000000000000000000000000000000602082015250565b5f610c88602583610b90565b9150610c9382610c2e565b604082019050919050565b5f6020820190508181035f830152610cb581610c7c565b9050919050565b7f4172626974657220726566756e64656420746865207374616b6520746f2050615f8201527f7274792032000000000000000000000000000000000000000000000000000000602082015250565b5f610d16602583610b90565b9150610d2182610cbc565b604082019050919050565b5f6020820190508181035f830152610d4381610d0a565b9050919050565b7f4f6e6c792074686520617262697465722063616e2064656369646520746865205f8201527f77696e6e65720000000000000000000000000000000000000000000000000000602082015250565b5f610da4602683610b90565b9150610daf82610d4a565b604082019050919050565b5f6020820190508181035f830152610dd181610d98565b9050919050565b7f416c6c2070617274696573206d757374206861766520706169642074686569725f8201527f207374616b657300000000000000000000000000000000000000000000000000602082015250565b5f610e32602783610b90565b9150610e3d82610dd8565b604082019050919050565b5f6020820190508181035f830152610e5f81610e26565b9050919050565b5f819050919050565b610e7881610e66565b82525050565b5f602082019050610e915f830184610e6f565b92915050565b7f47616d652069732066756c6c00000000000000000000000000000000000000005f82015250565b5f610ecb600c83610b90565b9150610ed682610e97565b602082019050919050565b5f6020820190508181035f830152610ef881610ebf565b9050919050565b7f4d757374207374616b65206120706f73697469766520616d6f756e74206f66205f8201527f6574686572000000000000000000000000000000000000000000000000000000602082015250565b5f610f59602583610b90565b9150610f6482610eff565b604082019050919050565b5f6020820190508181035f830152610f8681610f4d565b9050919050565b7f50617274792031206a6f696e656420616e642070616964207374616b650000005f82015250565b5f610fc1601d83610b90565b9150610fcc82610f8d565b602082019050919050565b5f6020820190508181035f830152610fee81610fb5565b9050919050565b7f50617274792032206a6f696e656420616e642070616964207374616b650000005f82015250565b5f611029601d83610b90565b915061103482610ff5565b602082019050919050565b5f6020820190508181035f8301526110568161101d565b9050919050565b7f4e487b71000000000000000000000000000000000000000000000000000000005f52601160045260245ffd5b5f61109482610e66565b915061109f83610e66565b92508282019050808211156110b7576110b661105d565b5b92915050565b5f6110c782610e66565b91506110d283610e66565b92508282026110e081610e66565b915082820484148315176110f7576110f661105d565b5b5092915050565b7f4e487b71000000000000000000000000000000000000000000000000000000005f52601260045260245ffd5b5f61113582610e66565b915061114083610e66565b9250826111505761114f6110fe565b5b828204905092915050565b5f61116582610e66565b915061117083610e66565b92508282039050818111156111885761118761105d565b5b9291505056fea2646970667358221220e8c07be7a1ef64db6db992a03bf6fc4668ce8d274c72e0be9bfe328d645dd20f64736f6c63430008150033a264697066735822122078dfeac93a226e825a4a864c3949a6de5625fec1e847a7aa42c0d9cad96c9c7764736f6c63430008150033",
  "immutableReferences": {},
  "source": "// SPDX-License-Identifier: MIT\npragma solidity >=0.4.22 <0.9.0;\n\nimport \"@openzeppelin/contracts/utils/math/SafeMath.sol\";\nimport \"@openzeppelin/contracts/access/Ownable.sol\";\n\ncontract RPSContract {\n  using SafeMath for uint256;\n\n  address payable party1;\n  address payable party2;\n  address payable arbiter;\n  uint256 stake1;\n  uint256 stake2;\n  bool party1Paid;\n  bool party2Paid;\n  uint256 arbiterFeePercentage;\n\n  event StakePaid(address indexed _from, uint _value);\n  event WinnerDecided(address indexed _winner, uint _value);\n  event Draw(address indexed _party1, address indexed _party2, uint _value);\n  event Log(string message);\n\n  constructor(uint256 _arbiterFeePercentage) {\n    // arbiter = payable(0x3b10f9d3773172f2f74bB1Bb8EfBCF18626b3bE8);\n    \n    \n    // change this to match an address on your local network\n    arbiter = payable(0xa590A5a230E185Ab602ee46FDdC6a96f7Bc9F219);\n    arbiterFeePercentage = _arbiterFeePercentage;\n  }\n\n  function joinContract() public payable {\n    require(party1 == address(0) || party2 == address(0), \"Game is full\");\n    require(msg.value > 0, \"Must stake a positive amount of ether\");\n\n    if (party1 == address(0)) {\n      party1 = payable(msg.sender);\n      stake1 = msg.value;\n      party1Paid = true;\n      emit Log(\"Party 1 joined and paid stake\");\n      emit StakePaid(msg.sender, msg.value);\n    } else {\n      party2 = payable(msg.sender);\n      party2Paid = true;\n      stake2 = msg.value;\n      emit Log(\"Party 2 joined and paid stake\");\n      emit StakePaid(msg.sender, msg.value);\n    }\n  }\n\n  function refundWager(address payable payee) public {\n    require(\n      msg.sender == arbiter,\n      \"Only the arbiter can issue a refund\"\n    );\n\n    if (payee == party1) {\n      party1.transfer(stake1);\n      emit Log(\"Arbiter refunded the stake to Party 1\");\n    } else {\n      party2.transfer(stake2);\n      emit Log(\"Arbiter refunded the stake to Party 2\");\n    }\n  }\n\n  function decideWinner(address payable winner) public {\n    require(\n      msg.sender == arbiter,\n      \"Only the arbiter can decide the winner\"\n    );\n    require(\n      party1Paid && party2Paid,\n      \"All parties must have paid their stakes\"\n    );\n\n    uint256 totalStake = stake1.add(stake2);\n    uint256 arbiterFee = totalStake.mul(arbiterFeePercentage).div(10000);\n    uint256 winnerPrize = totalStake.sub(arbiterFee);\n\n    if (winner == arbiter) {\n      // pay arbiter fee in any case, but return each stake to the proper party minus the arbiter fee\n      arbiter.transfer(arbiterFee);\n      uint256 halfArbiterFee = arbiterFee.div(2);\n      party1.transfer(stake1.sub(halfArbiterFee));\n      party2.transfer(stake2.sub(halfArbiterFee));\n      emit Draw(party1, party2, totalStake);\n    } else {\n      arbiter.transfer(arbiterFee); // Pay arbiter their fee\n      winner.transfer(winnerPrize); // Pay winner their stake and the winner prize\n      emit WinnerDecided(winner, winnerPrize);\n    }\n  }\n}\n\ncontract RPSContractFactory is Ownable{\n  address[] contracts;\n  // address payable contractOwner;\n\n  event ContractCreated(address indexed _contract);\n\n  // constructor() {\n    // contractOwner = payable(0xE04870e9b9f26DFA4976307E721E7Ee2f979f874);\n    \n    \n    // change this to match an address on your local network\n    // contractOwner = payable(0x54104346D0A89E0A588AFBC34F55B3b9118DdF9f);\n  // }\n\n  function createContract(uint arbiterFeePercentage) public onlyOwner {\n    // require(\n    //   msg.sender == contractOwner,\n    //   \"Only the contract owner can create a contract\"\n    // );\n    RPSContract newContract = new RPSContract(arbiterFeePercentage);\n    contracts.push(address(newContract));\n\n    emit ContractCreated(address(newContract));\n  }\n\n  function getContracts() public onlyOwner view returns (address[] memory) {\n    // require(\n    //   msg.sender == contractOwner,\n    //   \"Only the contract owner can view all contracts\"\n    // );\n    return contracts;\n  }\n\n  function getLatestContract() public onlyOwner() view returns (address) {\n    // require(\n    //   msg.sender == contractOwner,\n    //   \"Only the contract owner can get the latest contract\"\n    // );\n    require(contracts.length > 0, \"No contracts available\");\n    return contracts[contracts.length - 1];\n  }\n}\n",
  "sourcePath": "/root/rps-contracts/contracts/RPSContractFactory.sol",
  "compiler": {
    "name": "solc",
    "version": "0.8.21+commit.d9974bed.Emscripten.clang"
  },
  "schemaVersion": "3.4.15",
  "updatedAt": "2023-09-29T14:09:52.937Z",
  "networkType": "ethereum",
  "devdoc": {
    "kind": "dev",
    "methods": {
      "owner()": {
        "details": "Returns the address of the current owner."
      },
      "renounceOwnership()": {
        "details": "Leaves the contract without owner. It will not be possible to call `onlyOwner` functions. Can only be called by the current owner. NOTE: Renouncing ownership will leave the contract without an owner, thereby disabling any functionality that is only available to the owner."
      },
      "transferOwnership(address)": {
        "details": "Transfers ownership of the contract to a new account (`newOwner`). Can only be called by the current owner."
      }
    },
    "version": 1
  },
  "userdoc": {
    "kind": "user",
    "methods": {},
    "version": 1
  }
}